:1008B70014080001004F001200120006006C0060CF
:0608C700000F0000000B11
:030003000208DD13
:0408DD00751C003254
:03000B000208E107
:0408E100751C003250
:10088C0075A805758805D2AF751C0AE4F51CC3E57F
:10089C001C940A7480948050F2E51C25E02408F81E
:0B08AC0008E6F5901208CE051C80E362
:0E08CE00E4FFFE0FBF00010EBE02F8BF8AF568
:0108DC0022F9
:03000000020800F3
:0C080000787FE4F6D8FD75811C020847E3
:10080C0002088CE493A3F8E493A34003F68001F26E
:10081C0008DFF48029E493A3F85407240CC8C333ED
:10082C00C4540F4420C8834004F456800146F6DFBC
:10083C00E4800B01020408102040809008B7E47E8D
:10084C00019360BCA3FF543F30E509541FFEE493B1
:10085C00A360010ECF54C025E060A840B8E493A378
:10086C00FAE493A3F8E493A3C8C582C8CAC583CAA3
:10087C00F0A3C8C582C8CAC583CADFE9DEE780BE5B
:0108CD00002A
:00000001FF
